:100000000C9434000C943E000C943E000C943E0082
:100010000C943E000C943E000C943E000C943E0068
:100020000C943E000C943E000C943E000C943E0058
:100030000C943E000C943E000C943E000C943E0048
:100040000C943E000C943E000C943E000C943E0038
:100050000C943E000C943E000C943E000C943E0028
:100060000C943E000C943E0011241FBECFEFD8E04C
:10007000DEBFCDBF0E945E000C949C000C9400007B
:100080001092C00020E12093C10026E02093C2001E
:100090009B01AC0184E0220F331F441F551F8A953A
:1000A000D1F760E074E284EF90E00E947A00215082
:1000B00031092093C4003093C5000895259A60E863
:1000C00075E280E090E00E94400090E28091C000E4
:1000D00087FFFCCF8091C600813311F42D9AF6CFB3
:1000E000803311F42D98F2CF823381F785B18927BF
:1000F00085B9ECCFA1E21A2EAA1BBB1BFD010DC0D6
:10010000AA1FBB1FEE1FFF1FA217B307E407F507C7
:1001100020F0A21BB30BE40BF50B661F771F881FA3
:10012000991F1A9469F760957095809590959B0139
:0C013000AC01BD01CF010895F894FFCF91
:00000001FF
