:100000001092C00020E12093C10026E02093C2009E
:100010009B01AC0184E0220F331F441F551F8A95BA
:10002000D1F760E074E284EF90E00E94210021505B
:1000300031092093C4003093C5000895259A2D9A64
:10004000FFCFA1E21A2EAA1BBB1BEA2FFB2F0DC06C
:10005000AA1FBB1FEE1FFF1FA217B307E407F50778
:1000600020F0A21BB30BE40BF50B661F771F881F54
:10007000991F1A9469F76095709580959095262F31
:10008000372F482F592F6A2F7B2F8E2F9F2F0895A0
:00000001FF
