:100000000C9434000C943E000C943E000C943E0082
:100010000C943E000C943E000C943E000C943E0068
:100020000C943E000C943E000C943E000C943E0058
:100030000C943E000C943E000C943E000C943E0048
:100040000C943E000C943E000C943E000C943E0038
:100050000C943E000C943E000C943E000C943E0028
:100060000C943E000C943E0011241FBECFEFD8E04C
:10007000DEBFCDBF0E945E000C94F6000C94000021
:100080001092C00020E12093C10026E02093C2001E
:100090009B01AC0184E0220F331F441F551F8A953A
:1000A000D1F760E472E48FE090E00E94D400215028
:1000B00031092093C4003093C5000895CF93DF9396
:1000C00000D000D0CDB7DEB7809161008468809306
:1000D000610084B1886184B960E875E280E090E0F5
:1000E0000E94400080E090E060E070E040E050E07E
:1000F00020E030E0E9EFF0E03197F1F700C00000D8
:100100002F5F3F4F2034FCE93F0711F42B9A07C0C3
:100110002134ECE93E0719F42B9820E030E0E0911F
:10012000C000E7FF19C08230910531F42B982C985C
:1001300080E090E040E050E0A091C600FC01EE0FAE
:10014000FF1FCC24C394D12CCC0EDD1EEC0DFD1D65
:10015000B0E0B183A08301968130910541F46F5FD7
:100160007F4F62337105D9F081E090E00DC082309D
:10017000910551F4FB80E12C09811A810E291F2978
:100180002B9A2C9A4F5F5F4F0417150709F0B2CFD7
:100190002B982C9880E090E040E050E0ABCF80E0DE
:1001A00090E060E070E0F0CFA1E21A2EAA1BBB1B2A
:1001B000FD010DC0AA1FBB1FEE1FFF1FA217B30733
:1001C000E407F50720F0A21BB30BE40BF50B661F49
:1001D000771F881F991F1A9469F76095709580950D
:1001E00090959B01AC01BD01CF010895F894FFCF1C
:00000001FF
