:100000000C9434000C943E000C943E000C943E0082
:100010000C943E000C943E000C943E000C943E0068
:100020000C943E000C943E000C943E000C943E0058
:100030000C943E000C943E000C943E000C943E0048
:100040000C943E000C943E000C943E000C943E0038
:100050000C943E000C943E000C943E000C943E0028
:100060000C943E000C943E0011241FBECFEFD8E04C
:10007000DEBFCDBF0E945E000C94EC000C9400002B
:100080001092C00020E12093C10026E02093C2001E
:100090009B01AC0184E0220F331F441F551F8A953A
:1000A000D1F760E074E284EF90E00E94CA00215032
:1000B00031092093C4003093C5000895CF93DF9396
:1000C00000D000D0CDB7DEB7259A60E875E280E0B9
:1000D00090E00E94400080E090E060E070E040E04E
:1000E00050E020E030E0EFE9FFE03197F1F700C0A9
:1000F00000002F5F3F4F2034FCE93F0711F42D9A99
:1001000007C02134ECE93E0719F42D9820E030E0D7
:10011000E091C000E7FF18C08230910529F42D98C6
:1001200080E090E040E050E0A091C600FC01EE0FBE
:10013000FF1FCC24C394D12CCC0EDD1EEC0DFD1D75
:10014000B0E0B183A08301968130910541F46F5FE7
:100150007F4F62337105C9F081E090E00CC08230BE
:10016000910549F4FB80E12C09811A810E291F2990
:100170002D9A4F5F5F4F0417150709F0B4CF2D98E4
:1001800080E090E040E050E0AECF80E090E060E0C2
:1001900070E0F1CFA1E21A2EAA1BBB1BFD010DC01E
:1001A000AA1FBB1FEE1FFF1FA217B307E407F50727
:1001B00020F0A21BB30BE40BF50B661F771F881F03
:1001C000991F1A9469F760957095809590959B0199
:0C01D000AC01BD01CF010895F894FFCFF1
:00000001FF
