:100000000C9434000C943E000C943E000C943E0082
:100010000C943E000C943E000C943E000C943E0068
:100020000C943E000C943E000C943E000C943E0058
:100030000C943E000C943E000C943E000C943E0048
:100040000C943E000C943E000C943E000C943E0038
:100050000C943E000C943E000C943E000C943E0028
:100060000C943E000C943E0011241FBECFEFD8E04C
:10007000DEBFCDBF0E945E000C94AF000C94000068
:100080001092C00020E12093C10026E02093C2001E
:100090009B01AC0184E0220F331F441F551F8A953A
:1000A000D1F760E074E284EF90E00E948D0021506F
:1000B00031092093C4003093C5000895259A60E863
:1000C00075E280E090E00E9440008091C00087FFD0
:1000D000FCCF8091C6002FEF30E792E021503040F6
:1000E0009040E1F700C000009091C00097FFEDCF75
:1000F0002091C60090E0922B2D9A20E030E0281746
:10010000390749F0EFE9FFE03197F1F700C000004F
:100110002F5F3F4FF4CF2D98D8CFA1E21A2EAA1B04
:10012000BB1BFD010DC0AA1FBB1FEE1FFF1FA217A7
:10013000B307E407F50720F0A21BB30BE40BF50BA4
:10014000661F771F881F991F1A9469F7609570952D
:10015000809590959B01AC01BD01CF010895F89465
:02016000FFCFCF
:00000001FF
